:1000000071C0000081C000007FC000007DC0000002
:100010007BC0000079C0000077C0000075C0000000
:1000200073C0000071C000006FC000006DC0000010
:100030006BC0000069C0000067C0000065C0000020
:1000400063C0000061C000005FC000005DC0000030
:100050005BC0000059C0000057C0000055C0000040
:1000600053C0000051C000004FC000004DC0000050
:100070004BC0000049C0000047C0000045C0000060
:100080009AC6000041C000003FC000003DC0000013
:100090003BC0000039C0000037C0000035C0000080
:1000A00033C0000031C000002FC000002DC0000090
:1000B0002BC0000029C0000027C0000025C00000A0
:1000C00023C0000021C000001FC000001DC00000B0
:1000D0001BC0000019C0000017C0000015C00000C0
:1000E00013C0000011241FBECFEFD1E2DEBFCDBF91
:1000F00000E00CBF27E1A0E0B2E001C01D92A83BE8
:10010000B207E1F795D6D4C67BCF0F921F922F92FC
:100110003F924F925F926F927F928F929F92AF9297
:10012000BF92CF92DF92EF92FF920F931F932F9384
:100130003F934F935F936F937F938F939F93AF936F
:10014000BF93CF93DF93EF93FF93FCB7FF930FB76A
:100150000F93EDB7FEB7E093B617F093B717E091A2
:10016000B417F091B517EDBFFEBF0F910FBFFF9110
:10017000FCBFFF91EF91DF91CF91BF91AF919F9124
:100180008F917F916F915F914F913F912F911F912F
:100190000F91FF90EF90DF90CF90BF90AF909F9026
:1001A0008F907F906F905F904F903F902F901F9017
:1001B0000F9018950F921F922F923F924F925F923D
:1001C0006F927F928F929F92AF92BF92CF92DF9267
:1001D000EF92FF920F931F932F933F934F935F9351
:1001E0006F937F938F939F93AF93BF93CF93DF933F
:1001F000EF93FF93FCB7FF930FB70F93EDB7FEB7E5
:10020000E093B417F093B517E091B617F091B717D4
:10021000EDBFFEBF0F910FBFFF91FCBFFF91EF91AC
:10022000DF91CF91BF91AF919F918F917F916F910E
:100230005F914F913F912F911F910F91FF90EF9000
:10024000DF90CF90BF90AF909F908F907F906F90F6
:100250005F904F903F902F901F900F90089590E0E7
:1002600080E021D0FCCF81E090E01DD0FCCF82E087
:1002700090E019D0FCCF83E090E015D0FCCF70E087
:1002800060E08FE291E041D470E060E083E391E0D0
:100290003CD470E060E087E391E037D470E060E048
:1002A0008BE391E032C4982FF8948FEF81B982B13B
:1002B00012B882B121E030E001C0220F9A95EAF72E
:1002C000822B82B90000000082B112B878940895A0
:1002D000FFCF8091B4049091B504892B69F0F89414
:1002E000E091B804F091B904E65FFE4F83E08083AB
:1002F00080E180930B015ECF0895FC0120A131A124
:100300002031310519F48CE088B9FFCFA4A1B5A143
:10031000AA0FBB1FAE0FBF1F11967C936E9380A1D7
:1003200091A1019691A380A384A195A1019660E17A
:1003300070E0A3D595A384A30895FC0180A191A1A9
:10034000892B19F48DE088B9FFCFA2A1B3A1AA0F20
:10035000BB1FAE0FBF1F2D913C9180A191A10197B2
:1003600091A380A382A193A1019660E170E085D55D
:1003700093A382A3C901089580910205909103057A
:10038000181619069CF482EE94E0D7DFFC019093D6
:10039000B9048093B804858196819093B5178093B2
:1003A000B417E95FFE4F82E08083089580912805AD
:1003B00090912905181619061CF488E095E0E5CF00
:1003C00080914E0590914F05181619061CF48EE287
:1003D00095E0DBCF8091DC049091DD0418161906BE
:1003E0001CF48CEB94E0D1CF88E188B9FFCFCF9398
:1003F000DF93EC018A818230A1F030F4811115C0C5
:10040000BE0182EE94E005C08330E1F4BE018CEBC6
:1004100094E073DFC95FDE4F81E08883DF91CF9185
:100420000895BE018EE295E0F4CFBE0188E095E02C
:1004300064DF809128059091290502975CF385E09F
:1004400088B9FFCF8CE788B9FFCF7F928F929F92B8
:10045000AF92BF92CF92DF92EF92FF920F931F93D2
:10046000CF93DF93EC01CB014A01702EB701A601B7
:100470007E0107E0E00EF11CC12CDD24D394F701CE
:100480008601119201501040E1F76E011AEFC11A76
:100490001EEFD10AF9E6EF2EF1E0FF2EF601E08221
:1004A0006E01FBEFCF1AFEEFDF0AF601F0827E014C
:1004B000FCEFEF1AFEEFFF0AF70110827E01FDEF5D
:1004C000EF1AFEEFFF0AF70180837E01FEEFEF1ABD
:1004D000FF0AF70190837E01F1E0EF0EFF1EF701A6
:1004E00010826E01FEEDCF0ED11C7E010FEDE00EED
:1004F000F11CF701108110681083DE82CD827E012D
:10050000F8EFEF1AFEEFFF0AF70191838083CE0127
:10051000865F9E4FFC0110827E01F5EFEF1AFEEF21
:10052000FF0AF70191828082398328837A82FC0155
:10053000108239967183608332965183408332965C
:10054000B182A0823296B182A0823296118210824C
:10055000F1E07F1215C084E0FE01E95FFE4F808369
:1005600088819981DF91CF911F910F91FF90EF903A
:10057000DF90CF90BF90AF909F908F907F90089525
:10058000CE0135DFEDCF7F928F929F92AF92BF92D7
:10059000CF92DF92EF92FF920F931F93CF93DF934F
:1005A000782E572F822F68015701E091B204F09105
:1005B000B304709709F440C00BE516E0D0E0C0E04A
:1005C000FE012196D8012C91222339F00A5D1E4F9D
:1005D000C031D105A9F7E0E1F0E0C091B204D091BB
:1005E000B3042196D093B304C093B2044F01BFEF7C
:1005F0008B1A9B0A06E211E0E09FE001E19FD00D1B
:10060000F09FD00D1124E82EF32E042F9401462FD5
:10061000672D792FCE018C5A9A4F17DFDF91CF913A
:100620001F910F91FF90EF90DF90CF90BF90AF9010
:100630009F908F907F90089580E090E0EFCF809121
:10064000000290910102409718F082E088B9FFCF34
:1006500020910002309101028BE2829FF001839F82
:10066000F00D1124EE5FFD4F91E090832091000288
:1006700030910102829FF001839FF00D1124EE5F03
:10068000FD4F14A213A22091000230910102829F1B
:10069000F001839FF00D1124EE5FFD4F16A215A20D
:1006A0002091000230910102829FF001839FF00DA2
:1006B0001124EE5FFD4F10A617A2809100029091C9
:1006C0000102019690930102809300020895AF9277
:1006D000BF92CF92DF92EF92FF920F931F93CF932F
:1006E000DF93A091B804B091B90412968C9112973F
:1006F000813019F483E088B9FFCFFD01E15FFE4F3F
:100700008081918101974BE2489F9001499F300D74
:100710001124F901EE5FFD4F8081811103C082E059
:1007200088B9FFCF823019F484E088B9FFCFED019A
:10073000CF5EDE4F4881598152A741A7833009F02F
:100740003BC0C9018B5F9D4F7C01EF016F0193E2BC
:10075000C90ED11C5F01A9E2AA0EB11CF60180816D
:100760009181181619066CF081E08883DF91CF9192
:100770001F910F91FF90EF90DF90CF90BF90AF90BF
:100780000895C701DADD8C01FC01E35FFE4FD5015E
:100790008D919C9191838083C80129DE8091B8045A
:1007A0009091B904FC012281D80112963C91321734
:1007B000A8F61DDEE1DDD2CF82E08083B283A18383
:1007C000A95FBE4F83E08C93D1CFEF92FF920F933E
:1007D0001F93CF93DF93C091B804D091B9048A815D
:1007E000813019F483E088B9FFCFFE01E15FFE4F4D
:1007F000E080F18081E0E81AF1082BE22E9DC00133
:100800002F9D900D11248C010E5F1D4FD8012C914E
:10081000211103C082E088B9FFCF223051F5F801E1
:1008200081A592A5FE01E35FFE4F9183808311961F
:100830008D919C91DCDD8A81D8011196ED91FC911E
:100840009281981718F4CE01D2DD96DD8BE28E9D51
:10085000F0018F9DF00D1124EE5FFD4F1282118289
:1008600081E08083DF91CF911F910F91FF90EF90F6
:100870000895BE018B5F9D4F40DD83E0F8018083CA
:10088000C95FDE4F8883EECFAF92BF92CF92DF92E7
:10089000EF92FF920F931F93CF93DF932091B804B1
:1008A0003091B904F901E15FFE4F80819181019798
:1008B0006BE2689FA001699F500D1124EA01CE5F91
:1008C000DD4F8881811103C082E088B9FFCF82307B
:1008D00019F484E088B9FFCF8330D9F42F5E3E4FFE
:1008E000D9018D919C919AA789A7FA01EB5FFD4FE1
:1008F0007F016E01F3E2CF0ED11C5E0189E2A80EEA
:10090000B11CF60180819181181619066CF081E006
:100910008883DF91CF911F910F91FF90EF90DF902F
:10092000CF90BF90AF900895C70107DD8C01FC0107
:10093000E35FFE4FD5018D919C9191838083C80127
:1009400056DD8091B8049091B904FC012281D80150
:1009500012963C913217A8F64ADD0EDDD2CF1092E6
:10096000B3041092B2041092B5041092B404109221
:10097000B7041092B604E4E5F5E086E291E0DF0109
:100980009C011D9221503040E1F7DF01A95FBE4F6D
:100990001C92EA5DFE4F37E1E43BF30781F71092CA
:1009A000010210920002E2E0F2E08BE2DF01282F68
:1009B0001D922A95E9F71082BB9634E0E23BF307DB
:1009C000A9F70895AF92BF92DF92EF92FF920F9333
:1009D0001F93CF93DF938091B4049091B504892B3A
:1009E00009F089C08091B2049091B304892B09F475
:1009F00082C0F89481E090E09093B5048093B404B1
:100A0000BBDC84E0D82EE091B804F091B904DF019A
:100A1000A65FBE4F1C92858196819093B5178093F7
:100A2000B41773DBC091B804D091B9048091B417A6
:100A30009091B5179E838D83FE01E65FFE4FE081A6
:100A4000E93008F7F0E08827E65AF84F8F4F28C2C0
:100A5000FE01EC5DFE4FE080F18032970081118154
:100A60003297208131815E0181EEA81A8EEFB80A9B
:100A7000F501408174976081718133978081918104
:100A800082DDF5018081823008F0BDCF90818A81BE
:100A9000981708F0B8CFCE01AADC6EDCB4CFFE0107
:100AA000E55EFE4F11821082C95FDE4FD882F5CF1E
:100AB000C95FDE4F18828091B2049091B304019710
:100AC0009093B3048093B204E8CFB9DDC35FDE4FE7
:100AD0009983888398CFFBDDE091B804F091B90445
:100AE000E95FFE4F8081833009F08DCFD6CF6DDE78
:100AF000F3CFCADE88CFDF91CF911F910F91FF9086
:100B0000EF90DF90BF90AF900895EF92FF920F9318
:100B10001F932091B4043091B504232B59F1F8941C
:100B20002091B8043091B904F901E65FFE4F41E02D
:100B30004083329791838083339671836083749668
:100B400082E0808331961182108232961182108267
:100B50002C5D3E4FF9011182108280E180930B01E0
:100B600029DB8091B2049091B3041F910F91FF9003
:100B7000EF900895F12CE12C10E000E030E020E04F
:100B800042E001DDEECFEF92FF920F931F93209191
:100B9000B4043091B504232B61F12091B804309155
:100BA000B904F894F901E65FFE4F41E040833297C3
:100BB000918380833396718360837496108231961B
:100BC000118210823296118210822C5D3E4FF90103
:100BD0001182108280E180930B01ECDAE091B8047D
:100BE000F091B904808191811F910F91FF90EF9056
:100BF0000895F12CE12C10E000E030E020E040E02E
:100C0000C2DCECCFEF92FF920F931F932091B404BC
:100C10003091B504232B79F1E091B804F091B90437
:100C2000F894DF01A65FBE4F21E02C931297119636
:100C30009C938E93139611967C936E9383E082839C
:100C4000189611961C921E92129611961C921E9244
:100C5000E95EFE4F1182108280E180930B01AADAD7
:100C6000E091B804F091B904808191811F910F91B6
:100C7000FF90EF900895F12CE12C10E000E030E0BF
:100C800020E043E080DCECCF8091B4049091B50487
:100C9000892B69F0F894E091B804F091B904E65F0B
:100CA000FE4F82E0808380E180930B0183CA089528
:100CB000F89410929000E1E9F0E010828081886061
:100CC000808380818260808380E29EE4909399009B
:100CD00080939800E1E7F0E0808182608083109249
:100CE00095001092940078940895EF92FF920F93DC
:100CF0001F93CF93DF938091BA049091BB04019628
:100D00009093BB048093BA04C4E5D5E010E000E002
:100D10007E0189EFE81A8EEFF80AF70180819A8147
:100D2000913089F48430E9F0749680819181019644
:100D3000918380833697208131818217930780F1D8
:100D400086E088B9FFCF843059F5CA5DDE4FF7E100
:100D5000C43BDF07E9F60230110534F185E088B9BC
:100D6000FFCFFE01E75EFE4F208131818091BA0402
:100D70009091BB042817390741F0F7018081815019
:100D8000823018F70F5F1F4FE0CFDE01AD5EBE4F20
:100D90008D919C91820F931F91838083CE0127DBDD
:100DA0008A81813091F6E9CFDF91CF911F910F9128
:100DB000FF90EF9008951F920F920FB60F9211249B
:100DC0000BB60F922F933F934F935F936F937F9345
:100DD0008F939F93AF93BF93EF93FF9386DFE09141
:100DE000B804F091B9048281823008F04DDFFF91A0
:100DF000EF91BF91AF919F918F917F916F915F9193
:100E00004F913F912F910F900BBE0F900FBE0F90FF
:100E10001F901895EAE0F1E08081846080838081F2
:100E2000886080838081806180838FEF87B9089597
:100E300096DDF0DF70E060E088E691E0E3DE62E0FE
:100E400070E08FE391E09FDE33DFBCDD90E080E077
:100E50000895AA1BBB1B51E107C0AA1FBB1FA61701
:100E6000B70710F0A61BB70B881F991F5A95A9F753
:100E700080959095BC01CD01089597FB072E16F43F
:100E8000009406D077FD08D0E4DF07FC05D03EF4DF
:100E9000909581959F4F0895709561957F4F089526
:100EA000EE0FFF1F881F8BBF0790F691E02D19945E
:100EB000F894FFCF4B0528054B0558054F056505F0
:060EC0006B0577057905C2
:00000001FF
